{
    "contractName": "TokenContract",
    "abi": [
        {
            "inputs": [
                {
                    "internalType": "string",
                    "name": "_name",
                    "type": "string"
                },
                {
                    "internalType": "string",
                    "name": "_symbol",
                    "type": "string"
                },
                {
                    "internalType": "uint8",
                    "name": "_decimals",
                    "type": "uint8"
                },
                {
                    "internalType": "uint256",
                    "name": "_totalSupply",
                    "type": "uint256"
                }
            ],
            "stateMutability": "nonpayable",
            "type": "constructor"
        },
        {
            "anonymous": false,
            "inputs": [
                {
                    "indexed": true,
                    "internalType": "address",
                    "name": "_owner",
                    "type": "address"
                },
                {
                    "indexed": true,
                    "internalType": "address",
                    "name": "_spender",
                    "type": "address"
                },
                {
                    "indexed": false,
                    "internalType": "uint256",
                    "name": "_value",
                    "type": "uint256"
                }
            ],
            "name": "Approval",
            "type": "event"
        },
        {
            "anonymous": false,
            "inputs": [
                {
                    "indexed": false,
                    "internalType": "address",
                    "name": "_from",
                    "type": "address"
                },
                {
                    "indexed": false,
                    "internalType": "address",
                    "name": "_to",
                    "type": "address"
                },
                {
                    "indexed": false,
                    "internalType": "uint256",
                    "name": "_value",
                    "type": "uint256"
                }
            ],
            "name": "Transfer",
            "type": "event"
        },
        {
            "inputs": [],
            "name": "VERSION",
            "outputs": [
                {
                    "internalType": "uint256",
                    "name": "",
                    "type": "uint256"
                }
            ],
            "stateMutability": "view",
            "type": "function"
        },
        {
            "inputs": [
                {
                    "internalType": "address",
                    "name": "_owner",
                    "type": "address"
                },
                {
                    "internalType": "address",
                    "name": "_spender",
                    "type": "address"
                }
            ],
            "name": "allowance",
            "outputs": [
                {
                    "internalType": "uint256",
                    "name": "remaining",
                    "type": "uint256"
                }
            ],
            "stateMutability": "view",
            "type": "function"
        },
        {
            "inputs": [
                {
                    "internalType": "address",
                    "name": "_spender",
                    "type": "address"
                },
                {
                    "internalType": "uint256",
                    "name": "_value",
                    "type": "uint256"
                }
            ],
            "name": "approve",
            "outputs": [
                {
                    "internalType": "bool",
                    "name": "success",
                    "type": "bool"
                }
            ],
            "stateMutability": "nonpayable",
            "type": "function"
        },
        {
            "inputs": [
                {
                    "internalType": "address",
                    "name": "_owner",
                    "type": "address"
                }
            ],
            "name": "balanceOf",
            "outputs": [
                {
                    "internalType": "uint256",
                    "name": "balance",
                    "type": "uint256"
                }
            ],
            "stateMutability": "view",
            "type": "function"
        },
        {
            "inputs": [
                {
                    "internalType": "uint256",
                    "name": "amount",
                    "type": "uint256"
                }
            ],
            "name": "burn",
            "outputs": [],
            "stateMutability": "nonpayable",
            "type": "function"
        },
        {
            "inputs": [],
            "name": "decimals",
            "outputs": [
                {
                    "internalType": "uint8",
                    "name": "",
                    "type": "uint8"
                }
            ],
            "stateMutability": "view",
            "type": "function"
        },
        {
            "inputs": [
                {
                    "internalType": "uint256",
                    "name": "amount",
                    "type": "uint256"
                }
            ],
            "name": "mint",
            "outputs": [],
            "stateMutability": "nonpayable",
            "type": "function"
        },
        {
            "inputs": [],
            "name": "name",
            "outputs": [
                {
                    "internalType": "string",
                    "name": "",
                    "type": "string"
                }
            ],
            "stateMutability": "view",
            "type": "function"
        },
        {
            "inputs": [],
            "name": "setAccountVault",
            "outputs": [],
            "stateMutability": "nonpayable",
            "type": "function"
        },
        {
            "inputs": [],
            "name": "symbol",
            "outputs": [
                {
                    "internalType": "string",
                    "name": "",
                    "type": "string"
                }
            ],
            "stateMutability": "view",
            "type": "function"
        },
        {
            "inputs": [],
            "name": "totalSupply",
            "outputs": [
                {
                    "internalType": "uint256",
                    "name": "",
                    "type": "uint256"
                }
            ],
            "stateMutability": "view",
            "type": "function"
        },
        {
            "inputs": [
                {
                    "internalType": "address",
                    "name": "_to",
                    "type": "address"
                },
                {
                    "internalType": "uint256",
                    "name": "_value",
                    "type": "uint256"
                }
            ],
            "name": "transfer",
            "outputs": [
                {
                    "internalType": "bool",
                    "name": "success",
                    "type": "bool"
                }
            ],
            "stateMutability": "nonpayable",
            "type": "function"
        },
        {
            "inputs": [
                {
                    "internalType": "address",
                    "name": "_from",
                    "type": "address"
                },
                {
                    "internalType": "address",
                    "name": "_to",
                    "type": "address"
                },
                {
                    "internalType": "uint256",
                    "name": "_value",
                    "type": "uint256"
                }
            ],
            "name": "transferFrom",
            "outputs": [
                {
                    "internalType": "bool",
                    "name": "success",
                    "type": "bool"
                }
            ],
            "stateMutability": "nonpayable",
            "type": "function"
        }
    ],
    "bytecode": "60a0604081905260006080819052620000199181620000c7565b506040805160208101918290526000908190526200003a91600191620000c7565b503480156200004857600080fd5b5060405162001051380380620010518339810160408190526200006b916200023a565b835162000080906000906020870190620000c7565b50825162000096906001906020860190620000c7565b506002805460ff191660ff93909316929092179091556003555050600480546001600160a01b031916905562000301565b828054620000d590620002c5565b90600052602060002090601f016020900481019282620000f9576000855562000144565b82601f106200011457805160ff191683800117855562000144565b8280016001018555821562000144579182015b828111156200014457825182559160200191906001019062000127565b506200015292915062000156565b5090565b5b8082111562000152576000815560010162000157565b634e487b7160e01b600052604160045260246000fd5b600082601f8301126200019557600080fd5b81516001600160401b0380821115620001b257620001b26200016d565b604051601f8301601f19908116603f01168101908282118183101715620001dd57620001dd6200016d565b81604052838152602092508683858801011115620001fa57600080fd5b600091505b838210156200021e5785820183015181830184015290820190620001ff565b83821115620002305760008385830101525b9695505050505050565b600080600080608085870312156200025157600080fd5b84516001600160401b03808211156200026957600080fd5b620002778883890162000183565b955060208701519150808211156200028e57600080fd5b506200029d8782880162000183565b935050604085015160ff81168114620002b557600080fd5b6060959095015193969295505050565b600181811c90821680620002da57607f821691505b602082108103620002fb57634e487b7160e01b600052602260045260246000fd5b50919050565b610d4080620003116000396000f3fe608060405234801561001057600080fd5b50600436106100cf5760003560e01c806342966c681161008c578063a0712d6811610066578063a0712d681461019d578063a9059cbb146101b0578063dd62ed3e146101c3578063ffa1ad74146101fc57600080fd5b806342966c681461015957806370a082311461016c57806395d89b411461019557600080fd5b806306fdde03146100d4578063095ea7b3146100f257806318160ddd1461011557806323b872dd14610127578063313ce5671461013a5780633f4a5d731461014f575b600080fd5b6100dc610204565b6040516100e99190610b02565b60405180910390f35b610105610100366004610b73565b610296565b60405190151581526020016100e9565b6003545b6040519081526020016100e9565b610105610135366004610b9d565b6102ac565b60025460405160ff90911681526020016100e9565b610157610471565b005b610157610167366004610bd9565b61053f565b61011961017a366004610bf2565b6001600160a01b031660009081526005602052604090205490565b6100dc6106ed565b6101576101ab366004610bd9565b6106fc565b6101056101be366004610b73565b610830565b6101196101d1366004610c14565b6001600160a01b03918216600090815260066020908152604080832093909416825291909152205490565b610119606481565b60606000805461021390610c47565b80601f016020809104026020016040519081016040528092919081815260200182805461023f90610c47565b801561028c5780601f106102615761010080835404028352916020019161028c565b820191906000526020600020905b81548152906001019060200180831161026f57829003601f168201915b5050505050905090565b60006102a333848461083d565b50600192915050565b6000336102d45760405162461bcd60e51b81526004016102cb90610c81565b60405180910390fd5b6001600160a01b03841661033a5760405162461bcd60e51b815260206004820152602760248201527f45524332303a2046726f6d204163636f756e7420697320746865207a65726f206044820152666164647265737360c81b60648201526084016102cb565b6001600160a01b03831661039e5760405162461bcd60e51b815260206004820152602560248201527f45524332303a20546f204163636f756e7420697320746865207a65726f206164604482015264647265737360d81b60648201526084016102cb565b3360009081526006602090815260408083206001600160a01b03881684529091529020548211156104225760405162461bcd60e51b815260206004820152602860248201527f45524332303a207472616e7366657220616d6f756e74206578636565647320616044820152676c6c6f77616e636560c01b60648201526084016102cb565b3360008181526006602090815260408083206001600160a01b03891684529091529020549061045b90866104568685610cdb565b61083d565b610466858585610925565b506001949350505050565b6004546001600160a01b0316156104d45760405162461bcd60e51b815260206004820152602160248201527f45524332303a205661756c74204163636f756e74206973206e6f7420656d70746044820152607960f81b60648201526084016102cb565b3361052b5760405162461bcd60e51b815260206004820152602160248201527f45524332303a205661756c74204163636f756e74207a65726f206164647265736044820152607360f81b60648201526084016102cb565b600480546001600160a01b03191633179055565b336105965760405162461bcd60e51b815260206004820152602160248201527f45524332303a206275726e2066726f6d20746865207a65726f206164647265736044820152607360f81b60648201526084016102cb565b6004546001600160a01b031633036105fc5760405162461bcd60e51b815260206004820152602360248201527f45524332303a206d696e74206d75736e2774206265205661756c74204163636f6044820152621d5b9d60ea1b60648201526084016102cb565b336000908152600560205260409020548111156106665760405162461bcd60e51b815260206004820152602260248201527f45524332303a206275726e20616d6f756e7420657863656564732062616c616e604482015261636560f01b60648201526084016102cb565b80600360008282546106789190610cdb565b909155505033600090815260056020526040902054610698908290610cdb565b3360008181526005602090815260408083209490945583519283528201529081018290527fddf252ad1be2c89b69c2b068fc378daa952ba7f163c4a11628f55a4df523b3ef906060015b60405180910390a150565b60606001805461021390610c47565b336107495760405162461bcd60e51b815260206004820152601f60248201527f45524332303a206d696e7420746f20746865207a65726f20616464726573730060448201526064016102cb565b6004546001600160a01b031633146107ad5760405162461bcd60e51b815260206004820152602160248201527f45524332303a206d696e74206d757374206265205661756c74204163636f756e6044820152601d60fa1b60648201526084016102cb565b80600360008282546107bf9190610cf2565b9091555050336000908152600560205260409020546107df908290610cf2565b3360008181526005602090815260408083209490945583519182528101919091529081018290527fddf252ad1be2c89b69c2b068fc378daa952ba7f163c4a11628f55a4df523b3ef906060016106e2565b60006102a3338484610925565b6001600160a01b0383166108635760405162461bcd60e51b81526004016102cb90610c81565b6001600160a01b0382166108c45760405162461bcd60e51b815260206004820152602260248201527f45524332303a20617070726f766520746f20746865207a65726f206164647265604482015261737360f01b60648201526084016102cb565b6001600160a01b0383811660008181526006602090815260408083209487168084529482529182902085905590518481527f8c5be1e5ebec7d5bd14f71427d1e84f3dd0314c0f7b2291e5b200ac8c7c3b925910160405180910390a3505050565b6001600160a01b03831661097b5760405162461bcd60e51b815260206004820152601f60248201527f45524332303a205472616e7366657220746f205a45524f20416464726573730060448201526064016102cb565b6001600160a01b0382166109d15760405162461bcd60e51b815260206004820152601f60248201527f45524332303a205472616e7366657220746f205a45524f20416464726573730060448201526064016102cb565b6001600160a01b03831660009081526005602052604090205480821115610a495760405162461bcd60e51b815260206004820152602660248201527f45524332303a207472616e7366657220616d6f756e7420657863656564732062604482015265616c616e636560d01b60648201526084016102cb565b6001600160a01b038416600090815260056020526040902054610a6d908390610cdb565b6001600160a01b038086166000908152600560205260408082209390935590851681522054610a9d908390610cf2565b6001600160a01b038481166000818152600560209081526040918290209490945580519288168352928201529081018390527fddf252ad1be2c89b69c2b068fc378daa952ba7f163c4a11628f55a4df523b3ef9060600160405180910390a150505050565b600060208083528351808285015260005b81811015610b2f57858101830151858201604001528201610b13565b81811115610b41576000604083870101525b50601f01601f1916929092016040019392505050565b80356001600160a01b0381168114610b6e57600080fd5b919050565b60008060408385031215610b8657600080fd5b610b8f83610b57565b946020939093013593505050565b600080600060608486031215610bb257600080fd5b610bbb84610b57565b9250610bc960208501610b57565b9150604084013590509250925092565b600060208284031215610beb57600080fd5b5035919050565b600060208284031215610c0457600080fd5b610c0d82610b57565b9392505050565b60008060408385031215610c2757600080fd5b610c3083610b57565b9150610c3e60208401610b57565b90509250929050565b600181811c90821680610c5b57607f821691505b602082108103610c7b57634e487b7160e01b600052602260045260246000fd5b50919050565b60208082526024908201527f45524332303a20617070726f76652066726f6d20746865207a65726f206164646040820152637265737360e01b606082015260800190565b634e487b7160e01b600052601160045260246000fd5b600082821015610ced57610ced610cc5565b500390565b60008219821115610d0557610d05610cc5565b50019056fea264697066735822122077d94b14cd8d408df64f40b622592effdd2d0104b7207c0372301a2ddbb575e464736f6c634300080e0033",
    "sourcePath": "e:/Repos/Universidad_ORT/Tecnologias_Blockchain_y_Contratos_Inteligentes/Obligatorio/obligatorio-bayuk-colli-gallicchio-areco/contracts/TokenContract.sol",
    "compiler": {
        "name": "solc",
        "version": "0.8.14+commit.80d49f37"
    },
    "functionHashes": {
        "VERSION()": "ffa1ad74",
        "allowance(address,address)": "dd62ed3e",
        "approve(address,uint256)": "095ea7b3",
        "balanceOf(address)": "70a08231",
        "burn(uint256)": "42966c68",
        "decimals()": "313ce567",
        "mint(uint256)": "a0712d68",
        "name()": "06fdde03",
        "setAccountVault()": "3f4a5d73",
        "symbol()": "95d89b41",
        "totalSupply()": "18160ddd",
        "transfer(address,uint256)": "a9059cbb",
        "transferFrom(address,address,uint256)": "23b872dd"
    },
    "gasEstimates": {
        "creation": {
            "codeDepositCost": "678400",
            "executionCost": "infinite",
            "totalCost": "infinite"
        },
        "external": {
            "VERSION()": "283",
            "allowance(address,address)": "infinite",
            "approve(address,uint256)": "24619",
            "balanceOf(address)": "2582",
            "burn(uint256)": "infinite",
            "decimals()": "2378",
            "mint(uint256)": "infinite",
            "name()": "infinite",
            "setAccountVault()": "26644",
            "symbol()": "infinite",
            "totalSupply()": "2326",
            "transfer(address,uint256)": "53288",
            "transferFrom(address,address,uint256)": "infinite"
        },
        "internal": {
            "_approve(address,address,uint256)": "infinite",
            "_transfer(address,address,uint256)": "infinite",
            "executeMethodExchangeEtherFromVault(uint256)": "infinite",
            "executeMethodSetTransferAccountFromVault(address)": "infinite"
        }
    }
}