{
    "contractName": "TokenContract",
    "abi": [
        {
            "inputs": [
                {
                    "internalType": "string",
                    "name": "_name",
                    "type": "string"
                },
                {
                    "internalType": "string",
                    "name": "_symbol",
                    "type": "string"
                },
                {
                    "internalType": "uint8",
                    "name": "_decimals",
                    "type": "uint8"
                }
            ],
            "stateMutability": "nonpayable",
            "type": "constructor"
        },
        {
            "anonymous": false,
            "inputs": [
                {
                    "indexed": true,
                    "internalType": "address",
                    "name": "_owner",
                    "type": "address"
                },
                {
                    "indexed": true,
                    "internalType": "address",
                    "name": "_spender",
                    "type": "address"
                },
                {
                    "indexed": false,
                    "internalType": "uint256",
                    "name": "_value",
                    "type": "uint256"
                }
            ],
            "name": "Approval",
            "type": "event"
        },
        {
            "anonymous": false,
            "inputs": [
                {
                    "indexed": false,
                    "internalType": "uint256",
                    "name": "tokensAmount",
                    "type": "uint256"
                },
                {
                    "indexed": false,
                    "internalType": "address",
                    "name": "to",
                    "type": "address"
                }
            ],
            "name": "BurnFromVault",
            "type": "event"
        },
        {
            "anonymous": false,
            "inputs": [
                {
                    "indexed": false,
                    "internalType": "address",
                    "name": "transferAccount",
                    "type": "address"
                }
            ],
            "name": "SetTransferAccountFromVault",
            "type": "event"
        },
        {
            "anonymous": false,
            "inputs": [
                {
                    "indexed": false,
                    "internalType": "address",
                    "name": "_from",
                    "type": "address"
                },
                {
                    "indexed": false,
                    "internalType": "address",
                    "name": "_to",
                    "type": "address"
                },
                {
                    "indexed": false,
                    "internalType": "uint256",
                    "name": "_value",
                    "type": "uint256"
                }
            ],
            "name": "Transfer",
            "type": "event"
        },
        {
            "inputs": [],
            "name": "VERSION",
            "outputs": [
                {
                    "internalType": "uint256",
                    "name": "",
                    "type": "uint256"
                }
            ],
            "stateMutability": "view",
            "type": "function"
        },
        {
            "inputs": [
                {
                    "internalType": "address",
                    "name": "_owner",
                    "type": "address"
                },
                {
                    "internalType": "address",
                    "name": "_spender",
                    "type": "address"
                }
            ],
            "name": "allowance",
            "outputs": [
                {
                    "internalType": "uint256",
                    "name": "remaining",
                    "type": "uint256"
                }
            ],
            "stateMutability": "view",
            "type": "function"
        },
        {
            "inputs": [
                {
                    "internalType": "address",
                    "name": "_spender",
                    "type": "address"
                },
                {
                    "internalType": "uint256",
                    "name": "_value",
                    "type": "uint256"
                }
            ],
            "name": "approve",
            "outputs": [
                {
                    "internalType": "bool",
                    "name": "success",
                    "type": "bool"
                }
            ],
            "stateMutability": "nonpayable",
            "type": "function"
        },
        {
            "inputs": [
                {
                    "internalType": "address",
                    "name": "_owner",
                    "type": "address"
                }
            ],
            "name": "balanceOf",
            "outputs": [
                {
                    "internalType": "uint256",
                    "name": "balance",
                    "type": "uint256"
                }
            ],
            "stateMutability": "view",
            "type": "function"
        },
        {
            "inputs": [
                {
                    "internalType": "uint256",
                    "name": "amount",
                    "type": "uint256"
                }
            ],
            "name": "burn",
            "outputs": [],
            "stateMutability": "nonpayable",
            "type": "function"
        },
        {
            "inputs": [],
            "name": "decimals",
            "outputs": [
                {
                    "internalType": "uint8",
                    "name": "",
                    "type": "uint8"
                }
            ],
            "stateMutability": "view",
            "type": "function"
        },
        {
            "inputs": [
                {
                    "internalType": "uint256",
                    "name": "amount",
                    "type": "uint256"
                }
            ],
            "name": "mint",
            "outputs": [],
            "stateMutability": "nonpayable",
            "type": "function"
        },
        {
            "inputs": [],
            "name": "name",
            "outputs": [
                {
                    "internalType": "string",
                    "name": "",
                    "type": "string"
                }
            ],
            "stateMutability": "view",
            "type": "function"
        },
        {
            "inputs": [
                {
                    "internalType": "address",
                    "name": "newAddress",
                    "type": "address"
                }
            ],
            "name": "setAccountVault",
            "outputs": [],
            "stateMutability": "nonpayable",
            "type": "function"
        },
        {
            "inputs": [],
            "name": "symbol",
            "outputs": [
                {
                    "internalType": "string",
                    "name": "",
                    "type": "string"
                }
            ],
            "stateMutability": "view",
            "type": "function"
        },
        {
            "inputs": [],
            "name": "totalSupply",
            "outputs": [
                {
                    "internalType": "uint256",
                    "name": "",
                    "type": "uint256"
                }
            ],
            "stateMutability": "view",
            "type": "function"
        },
        {
            "inputs": [
                {
                    "internalType": "address",
                    "name": "_to",
                    "type": "address"
                },
                {
                    "internalType": "uint256",
                    "name": "_value",
                    "type": "uint256"
                }
            ],
            "name": "transfer",
            "outputs": [
                {
                    "internalType": "bool",
                    "name": "success",
                    "type": "bool"
                }
            ],
            "stateMutability": "nonpayable",
            "type": "function"
        },
        {
            "inputs": [
                {
                    "internalType": "address",
                    "name": "_from",
                    "type": "address"
                },
                {
                    "internalType": "address",
                    "name": "_to",
                    "type": "address"
                },
                {
                    "internalType": "uint256",
                    "name": "_value",
                    "type": "uint256"
                }
            ],
            "name": "transferFrom",
            "outputs": [
                {
                    "internalType": "bool",
                    "name": "success",
                    "type": "bool"
                }
            ],
            "stateMutability": "nonpayable",
            "type": "function"
        }
    ],
    "bytecode": "60a0604081905260006080819052620000199181620000c6565b506040805160208101918290526000908190526200003a91600191620000c6565b503480156200004857600080fd5b5060405162001289380380620012898339810160408190526200006b9162000239565b825162000080906000906020860190620000c6565b50815162000096906001906020850190620000c6565b506002805460ff90921660ff199092169190911790555050600580546001600160a01b03191633179055620002fa565b828054620000d490620002be565b90600052602060002090601f016020900481019282620000f8576000855562000143565b82601f106200011357805160ff191683800117855562000143565b8280016001018555821562000143579182015b828111156200014357825182559160200191906001019062000126565b506200015192915062000155565b5090565b5b8082111562000151576000815560010162000156565b634e487b7160e01b600052604160045260246000fd5b600082601f8301126200019457600080fd5b81516001600160401b0380821115620001b157620001b16200016c565b604051601f8301601f19908116603f01168101908282118183101715620001dc57620001dc6200016c565b81604052838152602092508683858801011115620001f957600080fd5b600091505b838210156200021d5785820183015181830184015290820190620001fe565b838211156200022f5760008385830101525b9695505050505050565b6000806000606084860312156200024f57600080fd5b83516001600160401b03808211156200026757600080fd5b620002758783880162000182565b945060208601519150808211156200028c57600080fd5b506200029b8682870162000182565b925050604084015160ff81168114620002b357600080fd5b809150509250925092565b600181811c90821680620002d357607f821691505b602082108103620002f457634e487b7160e01b600052602260045260246000fd5b50919050565b610f7f806200030a6000396000f3fe608060405234801561001057600080fd5b50600436106100cf5760003560e01c806370a082311161008c578063a0712d6811610066578063a0712d68146101a8578063a9059cbb146101bb578063dd62ed3e146101ce578063ffa1ad741461020757600080fd5b806370a0823114610164578063894ddba61461018d57806395d89b41146101a057600080fd5b806306fdde03146100d4578063095ea7b3146100f257806318160ddd1461011557806323b872dd14610127578063313ce5671461013a57806342966c681461014f575b600080fd5b6100dc61020f565b6040516100e99190610d47565b60405180910390f35b610105610100366004610d96565b6102a1565b60405190151581526020016100e9565b6003545b6040519081526020016100e9565b610105610135366004610dc0565b6102b7565b60025460405160ff90911681526020016100e9565b61016261015d366004610dfc565b61047e565b005b610119610172366004610e15565b6001600160a01b031660009081526006602052604090205490565b61016261019b366004610e15565b61063a565b6100dc61072a565b6101626101b6366004610dfc565b610739565b6101056101c9366004610d96565b61086d565b6101196101dc366004610e37565b6001600160a01b03918216600090815260076020908152604080832093909416825291909152205490565b610119606481565b60606000805461021e90610e6a565b80601f016020809104026020016040519081016040528092919081815260200182805461024a90610e6a565b80156102975780601f1061026c57610100808354040283529160200191610297565b820191906000526020600020905b81548152906001019060200180831161027a57829003601f168201915b5050505050905090565b60006102ae33848461087a565b50600192915050565b6000336102df5760405162461bcd60e51b81526004016102d690610ea4565b60405180910390fd5b6001600160a01b0384166103455760405162461bcd60e51b815260206004820152602760248201527f45524332303a2046726f6d204163636f756e7420697320746865207a65726f206044820152666164647265737360c81b60648201526084016102d6565b6001600160a01b0383166103a95760405162461bcd60e51b815260206004820152602560248201527f45524332303a20546f204163636f756e7420697320746865207a65726f206164604482015264647265737360d81b60648201526084016102d6565b6001600160a01b038416600090815260076020908152604080832033845290915290205482111561042d5760405162461bcd60e51b815260206004820152602860248201527f45524332303a207472616e7366657220616d6f756e74206578636565647320616044820152676c6c6f77616e636560c01b60648201526084016102d6565b6001600160a01b038416600090815260076020908152604080832033808552925290912054906104689086906104638685610efe565b61087a565b6104738585856109d6565b506001949350505050565b336104d55760405162461bcd60e51b815260206004820152602160248201527f45524332303a206275726e2066726f6d20746865207a65726f206164647265736044820152607360f81b60648201526084016102d6565b6004546001600160a01b0316330361053b5760405162461bcd60e51b815260206004820152602360248201527f45524332303a206d696e74206d75736e2774206265205661756c74204163636f6044820152621d5b9d60ea1b60648201526084016102d6565b336000908152600660205260409020548111156105a55760405162461bcd60e51b815260206004820152602260248201527f45524332303a206275726e20616d6f756e7420657863656564732062616c616e604482015261636560f01b60648201526084016102d6565b80600360008282546105b79190610efe565b9091555050336000908152600660205260409020546105d7908290610efe565b336000818152600660205260409020919091556105f5908290610bb3565b60408051338152600060208201529081018290527fddf252ad1be2c89b69c2b068fc378daa952ba7f163c4a11628f55a4df523b3ef906060015b60405180910390a150565b61064e6005546001600160a01b0316331490565b6106a85760405162461bcd60e51b815260206004820152602560248201527f46756e6374696f6e2061636365737369626c65206f6e6c79206279207468652060448201526437bbb732b960d91b60648201526084016102d6565b6001600160a01b0381166107085760405162461bcd60e51b815260206004820152602160248201527f45524332303a205661756c74204163636f756e74207a65726f206164647265736044820152607360f81b60648201526084016102d6565b600480546001600160a01b0319166001600160a01b0392909216919091179055565b60606001805461021e90610e6a565b336107865760405162461bcd60e51b815260206004820152601f60248201527f45524332303a206d696e7420746f20746865207a65726f20616464726573730060448201526064016102d6565b6004546001600160a01b031633146107ea5760405162461bcd60e51b815260206004820152602160248201527f45524332303a206d696e74206d757374206265205661756c74204163636f756e6044820152601d60fa1b60648201526084016102d6565b80600360008282546107fc9190610f15565b90915550503360009081526006602052604090205461081c908290610f15565b3360008181526006602090815260408083209490945583519182528101919091529081018290527fddf252ad1be2c89b69c2b068fc378daa952ba7f163c4a11628f55a4df523b3ef9060600161062f565b60006102ae3384846109d6565b6001600160a01b0383166108a05760405162461bcd60e51b81526004016102d690610ea4565b6001600160a01b0382166109015760405162461bcd60e51b815260206004820152602260248201527f45524332303a20617070726f766520746f20746865207a65726f206164647265604482015261737360f01b60648201526084016102d6565b6001600160a01b0383166000908152600660205260409020548111156109755760405162461bcd60e51b8152602060048201526024808201527f417070726f766520616d6f756e742065786365656473206f776e65722062616c604482015263616e636560e01b60648201526084016102d6565b6001600160a01b0383811660008181526007602090815260408083209487168084529482529182902085905590518481527f8c5be1e5ebec7d5bd14f71427d1e84f3dd0314c0f7b2291e5b200ac8c7c3b925910160405180910390a3505050565b6001600160a01b038316610a2c5760405162461bcd60e51b815260206004820152601f60248201527f45524332303a205472616e7366657220746f205a45524f20416464726573730060448201526064016102d6565b6001600160a01b038216610a825760405162461bcd60e51b815260206004820152601f60248201527f45524332303a205472616e7366657220746f205a45524f20416464726573730060448201526064016102d6565b6001600160a01b03831660009081526006602052604090205480821115610afa5760405162461bcd60e51b815260206004820152602660248201527f45524332303a207472616e7366657220616d6f756e7420657863656564732062604482015265616c616e636560d01b60648201526084016102d6565b6001600160a01b038416600090815260066020526040902054610b1e908390610efe565b6001600160a01b038086166000908152600660205260408082209390935590851681522054610b4e908390610f15565b6001600160a01b038481166000818152600660209081526040918290209490945580519288168352928201529081018390527fddf252ad1be2c89b69c2b068fc378daa952ba7f163c4a11628f55a4df523b3ef9060600160405180910390a150505050565b604051602481018390526001600160a01b038216604482015260009060640160408051601f198184030181529181526020820180516001600160e01b0316633f34d4cf60e21b179052600454905191925060009182916001600160a01b031690610c1e908590610f2d565b6000604051808303816000865af19150503d8060008114610c5b576040519150601f19603f3d011682016040523d82523d6000602084013e610c60565b606091505b509092509050600182151514610cc45760405162461bcd60e51b815260206004820152602360248201527f4d6574686f64204275726e20696e205661756c7420436f6e747261637420666160448201526234b61760e91b60648201526084016102d6565b811515600103610d1057604080518681526001600160a01b03861660208201527feac34dcd78d1ba507d92481dcd5d2ebb42fbb3d38cfaf8781c3c9f703e30cae1910160405180910390a15b5050505050565b60005b83811015610d32578181015183820152602001610d1a565b83811115610d41576000848401525b50505050565b6020815260008251806020840152610d66816040850160208701610d17565b601f01601f19169190910160400192915050565b80356001600160a01b0381168114610d9157600080fd5b919050565b60008060408385031215610da957600080fd5b610db283610d7a565b946020939093013593505050565b600080600060608486031215610dd557600080fd5b610dde84610d7a565b9250610dec60208501610d7a565b9150604084013590509250925092565b600060208284031215610e0e57600080fd5b5035919050565b600060208284031215610e2757600080fd5b610e3082610d7a565b9392505050565b60008060408385031215610e4a57600080fd5b610e5383610d7a565b9150610e6160208401610d7a565b90509250929050565b600181811c90821680610e7e57607f821691505b602082108103610e9e57634e487b7160e01b600052602260045260246000fd5b50919050565b60208082526024908201527f45524332303a20617070726f76652066726f6d20746865207a65726f206164646040820152637265737360e01b606082015260800190565b634e487b7160e01b600052601160045260246000fd5b600082821015610f1057610f10610ee8565b500390565b60008219821115610f2857610f28610ee8565b500190565b60008251610f3f818460208701610d17565b919091019291505056fea26469706673582212208e521562230078391cf17c64ba7ecd8b1ae04418d4848b62d20299f8ae8d6a4e64736f6c634300080e0033",
    "sourcePath": "c:/Users/juanm/OneDrive/Documents/ORT/Blockchain/obligatorio-bayuk-colli-gallicchio-areco/contracts/TokenContract.sol",
    "compiler": {
        "name": "solc",
        "version": "0.8.14+commit.80d49f37"
    },
    "functionHashes": {
        "VERSION()": "ffa1ad74",
        "allowance(address,address)": "dd62ed3e",
        "approve(address,uint256)": "095ea7b3",
        "balanceOf(address)": "70a08231",
        "burn(uint256)": "42966c68",
        "decimals()": "313ce567",
        "mint(uint256)": "a0712d68",
        "name()": "06fdde03",
        "setAccountVault(address)": "894ddba6",
        "symbol()": "95d89b41",
        "totalSupply()": "18160ddd",
        "transfer(address,uint256)": "a9059cbb",
        "transferFrom(address,address,uint256)": "23b872dd"
    },
    "gasEstimates": {
        "creation": {
            "codeDepositCost": "793400",
            "executionCost": "infinite",
            "totalCost": "infinite"
        },
        "external": {
            "VERSION()": "283",
            "allowance(address,address)": "infinite",
            "approve(address,uint256)": "26832",
            "balanceOf(address)": "2560",
            "burn(uint256)": "infinite",
            "decimals()": "2378",
            "mint(uint256)": "infinite",
            "name()": "infinite",
            "setAccountVault(address)": "26806",
            "symbol()": "infinite",
            "totalSupply()": "2326",
            "transfer(address,uint256)": "53288",
            "transferFrom(address,address,uint256)": "infinite"
        },
        "internal": {
            "_approve(address,address,uint256)": "infinite",
            "_transfer(address,address,uint256)": "infinite",
            "executeMethodBurnFromVault(uint256,address)": "infinite",
            "isOwner()": "infinite"
        }
    }
}