{
    "contractName": "Vault",
    "abi": [
        {
            "inputs": [],
            "stateMutability": "nonpayable",
            "type": "constructor"
        },
        {
            "inputs": [
                {
                    "internalType": "address",
                    "name": "_admin",
                    "type": "address"
                }
            ],
            "name": "addAdmin",
            "outputs": [
                {
                    "internalType": "bool",
                    "name": "success",
                    "type": "bool"
                }
            ],
            "stateMutability": "nonpayable",
            "type": "function"
        },
        {
            "inputs": [],
            "name": "isAdmin",
            "outputs": [
                {
                    "internalType": "bool",
                    "name": "",
                    "type": "bool"
                }
            ],
            "stateMutability": "view",
            "type": "function"
        },
        {
            "inputs": [
                {
                    "internalType": "uint256",
                    "name": "amount",
                    "type": "uint256"
                }
            ],
            "name": "mint",
            "outputs": [
                {
                    "internalType": "bool",
                    "name": "success",
                    "type": "bool"
                }
            ],
            "stateMutability": "nonpayable",
            "type": "function"
        },
        {
            "inputs": [
                {
                    "internalType": "address",
                    "name": "_admin",
                    "type": "address"
                }
            ],
            "name": "removeAdmin",
            "outputs": [
                {
                    "internalType": "bool",
                    "name": "success",
                    "type": "bool"
                }
            ],
            "stateMutability": "nonpayable",
            "type": "function"
        },
        {
            "inputs": [
                {
                    "internalType": "address",
                    "name": "newAddress",
                    "type": "address"
                }
            ],
            "name": "setTransferAccount",
            "outputs": [],
            "stateMutability": "nonpayable",
            "type": "function"
        }
    ],
    "bytecode": "608060405234801561001057600080fd5b50336000908152600160208190526040909120805460ff191690911790556103558061003d6000396000f3fe608060405234801561001057600080fd5b50600436106100575760003560e01c80631785f53c1461005c5780633deced1f1461008357806370480275146100b5578063a0712d68146100c8578063b6db75a0146100db575b600080fd5b61006f61006a366004610257565b6100f3565b604051901515815260200160405180910390f35b6100b3610091366004610257565b600080546001600160a01b0319166001600160a01b0392909216919091179055565b005b61006f6100c3366004610257565b610151565b61006f6100d6366004610287565b6101a8565b3360009081526001602052604090205460ff1661006f565b3360009081526001602052604081205460ff1661012b5760405162461bcd60e51b8152600401610122906102a0565b60405180910390fd5b506001600160a01b03166000908152600160208190526040909120805460ff1916905590565b3360009081526001602052604081205460ff166101805760405162461bcd60e51b8152600401610122906102a0565b506001600160a01b03166000908152600160208190526040909120805460ff19168217905590565b600080826040516024016101be91815260200190565b60408051601f198184030181529181526020820180516001600160e01b031663140e25ad60e31b1790526000805491519293509182916001600160a01b0316906102099085906102e4565b6000604051808303816000865af19150503d8060008114610246576040519150601f19603f3d011682016040523d82523d6000602084013e61024b565b606091505b50909695505050505050565b60006020828403121561026957600080fd5b81356001600160a01b038116811461028057600080fd5b9392505050565b60006020828403121561029957600080fd5b5035919050565b60208082526024908201527f46756e6374696f6e2061636365737369626c65206f6e6c7920627920616e20616040820152633236b4b760e11b606082015260800190565b6000825160005b8181101561030557602081860181015185830152016102eb565b81811115610314576000828501525b50919091019291505056fea264697066735822122049b6d00ebb37680abc0b912af42a8cfee7131a6200e743c8f7217089b63d12cc64736f6c634300080e0033",
    "sourcePath": "e:/Repos/Universidad_ORT/Tecnologias_Blockchain_y_Contratos_Inteligentes/Obligatorio/obligatorio-bayuk-colli-gallicchio-areco/contracts/Vault.sol",
    "compiler": {
        "name": "solc",
        "version": "0.8.14+commit.80d49f37"
    },
    "functionHashes": {
        "addAdmin(address)": "70480275",
        "isAdmin()": "b6db75a0",
        "mint(uint256)": "a0712d68",
        "removeAdmin(address)": "1785f53c",
        "setTransferAccount(address)": "3deced1f"
    },
    "gasEstimates": {
        "creation": {
            "codeDepositCost": "170600",
            "executionCost": "24518",
            "totalCost": "195118"
        },
        "external": {
            "addAdmin(address)": "26853",
            "isAdmin()": "2426",
            "mint(uint256)": "infinite",
            "removeAdmin(address)": "26803",
            "setTransferAccount(address)": "24524"
        }
    }
}