{
    "contractName": "Vault",
    "abi": [
        {
            "inputs": [],
            "stateMutability": "payable",
            "type": "constructor"
        },
        {
            "anonymous": false,
            "inputs": [
                {
                    "indexed": false,
                    "internalType": "address",
                    "name": "",
                    "type": "address"
                },
                {
                    "indexed": false,
                    "internalType": "uint256",
                    "name": "",
                    "type": "uint256"
                }
            ],
            "name": "Received",
            "type": "event"
        },
        {
            "inputs": [
                {
                    "internalType": "address",
                    "name": "_admin",
                    "type": "address"
                }
            ],
            "name": "addAdmin",
            "outputs": [
                {
                    "internalType": "bool",
                    "name": "success",
                    "type": "bool"
                }
            ],
            "stateMutability": "nonpayable",
            "type": "function"
        },
        {
            "inputs": [
                {
                    "internalType": "uint256",
                    "name": "_amount",
                    "type": "uint256"
                },
                {
                    "internalType": "address payable",
                    "name": "_address",
                    "type": "address"
                }
            ],
            "name": "burn",
            "outputs": [],
            "stateMutability": "nonpayable",
            "type": "function"
        },
        {
            "inputs": [],
            "name": "buyPrice",
            "outputs": [
                {
                    "internalType": "uint256",
                    "name": "",
                    "type": "uint256"
                }
            ],
            "stateMutability": "view",
            "type": "function"
        },
        {
            "inputs": [
                {
                    "internalType": "uint256",
                    "name": "tokensAmount",
                    "type": "uint256"
                }
            ],
            "name": "exchangeEther",
            "outputs": [],
            "stateMutability": "payable",
            "type": "function"
        },
        {
            "inputs": [],
            "name": "isAdmin",
            "outputs": [
                {
                    "internalType": "bool",
                    "name": "",
                    "type": "bool"
                }
            ],
            "stateMutability": "view",
            "type": "function"
        },
        {
            "inputs": [],
            "name": "maxAmountToTransfer",
            "outputs": [
                {
                    "internalType": "uint256",
                    "name": "",
                    "type": "uint256"
                }
            ],
            "stateMutability": "view",
            "type": "function"
        },
        {
            "inputs": [
                {
                    "internalType": "uint256",
                    "name": "amount",
                    "type": "uint256"
                }
            ],
            "name": "mint",
            "outputs": [
                {
                    "internalType": "bool",
                    "name": "success",
                    "type": "bool"
                }
            ],
            "stateMutability": "nonpayable",
            "type": "function"
        },
        {
            "inputs": [
                {
                    "internalType": "address",
                    "name": "_admin",
                    "type": "address"
                }
            ],
            "name": "removeAdmin",
            "outputs": [
                {
                    "internalType": "bool",
                    "name": "success",
                    "type": "bool"
                }
            ],
            "stateMutability": "nonpayable",
            "type": "function"
        },
        {
            "inputs": [
                {
                    "internalType": "uint256",
                    "name": "_amount",
                    "type": "uint256"
                }
            ],
            "name": "requestWithdraw",
            "outputs": [],
            "stateMutability": "nonpayable",
            "type": "function"
        },
        {
            "inputs": [],
            "name": "sellPrice",
            "outputs": [
                {
                    "internalType": "uint256",
                    "name": "",
                    "type": "uint256"
                }
            ],
            "stateMutability": "view",
            "type": "function"
        },
        {
            "inputs": [
                {
                    "internalType": "uint256",
                    "name": "_value",
                    "type": "uint256"
                }
            ],
            "name": "setAPR",
            "outputs": [
                {
                    "internalType": "bool",
                    "name": "",
                    "type": "bool"
                }
            ],
            "stateMutability": "nonpayable",
            "type": "function"
        },
        {
            "inputs": [
                {
                    "internalType": "uint256",
                    "name": "_buyPrice",
                    "type": "uint256"
                }
            ],
            "name": "setBuyPrice",
            "outputs": [],
            "stateMutability": "nonpayable",
            "type": "function"
        },
        {
            "inputs": [
                {
                    "internalType": "address",
                    "name": "newAddress",
                    "type": "address"
                }
            ],
            "name": "setFarmAccount",
            "outputs": [],
            "stateMutability": "nonpayable",
            "type": "function"
        },
        {
            "inputs": [
                {
                    "internalType": "uint256",
                    "name": "maxAmount",
                    "type": "uint256"
                }
            ],
            "name": "setMaxAmountToTransfer",
            "outputs": [],
            "stateMutability": "nonpayable",
            "type": "function"
        },
        {
            "inputs": [
                {
                    "internalType": "uint8",
                    "name": "_maxPercentage",
                    "type": "uint8"
                }
            ],
            "name": "setMaxPercentage",
            "outputs": [],
            "stateMutability": "nonpayable",
            "type": "function"
        },
        {
            "inputs": [
                {
                    "internalType": "uint256",
                    "name": "_sellPrice",
                    "type": "uint256"
                }
            ],
            "name": "setSellPrice",
            "outputs": [],
            "stateMutability": "nonpayable",
            "type": "function"
        },
        {
            "inputs": [
                {
                    "internalType": "address",
                    "name": "newAddress",
                    "type": "address"
                }
            ],
            "name": "setTransferAccount",
            "outputs": [],
            "stateMutability": "nonpayable",
            "type": "function"
        },
        {
            "inputs": [
                {
                    "internalType": "address",
                    "name": "user",
                    "type": "address"
                },
                {
                    "internalType": "uint256",
                    "name": "tokensAmount",
                    "type": "uint256"
                }
            ],
            "name": "transfer",
            "outputs": [
                {
                    "internalType": "bool",
                    "name": "",
                    "type": "bool"
                }
            ],
            "stateMutability": "nonpayable",
            "type": "function"
        },
        {
            "inputs": [],
            "name": "withdraw",
            "outputs": [],
            "stateMutability": "nonpayable",
            "type": "function"
        },
        {
            "stateMutability": "payable",
            "type": "receive"
        }
    ],
    "bytecode": "608060409081523360009081526005602052908120805460ff19166001179055600a80549161002d83610037565b919050555061005e565b60006001820161005757634e487b7160e01b600052601160045260246000fd5b5060010190565b6117478061006d6000396000f3fe6080604052600436106101185760003560e01c806370480275116100a0578063a9059cbb11610064578063a9059cbb1461044f578063b6db75a01461046f578063cae44ebb14610494578063fc6634b9146104b4578063fcd3533c146104d457600080fd5b806370480275146103b9578063745400c9146103d9578063854303cf146103f95780638620410b14610419578063a0712d681461042f57600080fd5b80634b750334116100e75780634b7503341461032c5780635572f9c614610350578063622cdcc71461036357806363ae8d6c146103795780636efba73c1461039957600080fd5b8063029482d7146102a25780631785f53c146102c25780633ccfd60b146102f75780633deced1f1461030c57600080fd5b3661029d576000341161017e5760405162461bcd60e51b815260206004820152602360248201527f53686f756c64206465706f7369742065746865727320746f2062757920746f6b604482015262656e7360e81b60648201526084015b60405180910390fd5b60006002543461018e9190611509565b6040513360248201526044810182905290915060009060640160408051601f198184030181529181526020820180516001600160e01b031663a9059cbb60e01b1790526000805491519293509182916001600160a01b0316906101f290859061152b565b6000604051808303816000865af19150503d806000811461022f576040519150601f19603f3d011682016040523d82523d6000602084013e610234565b606091505b50909250905060018215151461025c5760405162461bcd60e51b815260040161017590611566565b811561029b57604080513381523460208201527f88a5966d370b9919b20f3e2c13ff65706f196a4e32cc2c12bf57088f88525874910160405180910390a15b005b600080fd5b3480156102ae57600080fd5b5061029b6102bd3660046115ad565b6104f4565b3480156102ce57600080fd5b506102e26102dd3660046115db565b610587565b60405190151581526020015b60405180910390f35b34801561030357600080fd5b5061029b6105f3565b34801561031857600080fd5b5061029b6103273660046115db565b610770565b34801561033857600080fd5b5061034260025481565b6040519081526020016102ee565b61029b61035e3660046115ad565b610888565b34801561036f57600080fd5b5061034260035481565b34801561038557600080fd5b5061029b6103943660046115ad565b610a75565b3480156103a557600080fd5b5061029b6103b43660046115db565b610b07565b3480156103c557600080fd5b506102e26103d43660046115db565b610c1d565b3480156103e557600080fd5b5061029b6103f43660046115ad565b610c7d565b34801561040557600080fd5b506102e26104143660046115ad565b610ead565b34801561042557600080fd5b5061034260015481565b34801561043b57600080fd5b506102e261044a3660046115ad565b610f8b565b34801561045b57600080fd5b506102e261046a3660046115ff565b61117b565b34801561047b57600080fd5b503360009081526005602052604090205460ff166102e2565b3480156104a057600080fd5b5061029b6104af36600461162b565b6112c6565b3480156104c057600080fd5b5061029b6104cf3660046115ad565b61130b565b3480156104e057600080fd5b5061029b6104ef36600461164e565b61139e565b3360009081526005602052604090205460ff166105235760405162461bcd60e51b81526004016101759061167e565b600081116105825760405162461bcd60e51b815260206004820152602660248201527f4d617820616d6f756e742073686f756c64206265206120706f73697469766520604482015265373ab6b132b960d11b6064820152608401610175565b600355565b3360009081526005602052604081205460ff166105b65760405162461bcd60e51b81526004016101759061167e565b6001600160a01b0382166000908152600560205260408120805460ff19169055600a8054916105e4836116c2565b9190505550600190505b919050565b3360009081526005602052604090205460ff166106225760405162461bcd60e51b81526004016101759061167e565b6000600754116106825760405162461bcd60e51b815260206004820152602560248201527f546865726520617265206e6f207769746864726177616c7320617070726f766560448201526419081e595d60da1b6064820152608401610175565b3360009081526009602052604090205460075481106106fe5760405162461bcd60e51b815260206004820152603260248201527f5468697320757365722068617320616c7265616479206d61646520616c6c2070604482015271656e64696e67207769746864726177616c7360701b6064820152608401610175565b336000908152600960205260408120805491610719836116d9565b9091555050600a54600082815260086020526040812054909161073b91611509565b604051909150339082156108fc029083906000818181858888f1935050505015801561076b573d6000803e3d6000fd5b505050565b3360009081526005602052604090205460ff1661079f5760405162461bcd60e51b81526004016101759061167e565b6000546001600160a01b0316156108045760405162461bcd60e51b815260206004820152602360248201527f546f6b656e20436f6e7472616374204163636f756e74206973206e6f7420656d60448201526270747960e81b6064820152608401610175565b6001600160a01b0381166108665760405162461bcd60e51b815260206004820152602360248201527f546f6b656e20436f6e7472616374204163636f756e74207a65726f206164647260448201526265737360e81b6064820152608401610175565b600080546001600160a01b0319166001600160a01b0392909216919091179055565b6003548111156109115760405162461bcd60e51b815260206004820152604860248201527f416d6f756e7420746f2065786368616e67652073686f756c64206265206c657360448201527f73207468617420746865206d617820616d6f756e7420746f207472616e7366656064820152671c881cd95d1d195960c21b608482015260a401610175565b6040513360248201523060448201526064810182905260009060840160408051601f198184030181529181526020820180516001600160e01b03166323b872dd60e01b1790526000805491519293509182916001600160a01b03169061097890859061152b565b6000604051808303816000865af19150503d80600081146109b5576040519150601f19603f3d011682016040523d82523d6000602084013e6109ba565b606091505b509092509050600182151514610a265760405162461bcd60e51b815260206004820152602b60248201527f4d6574686f64207472616e7366657246726f6d20696e205661756c7420436f6e60448201526a3a3930b1ba103330b4b61760a91b6064820152608401610175565b8115610a6f57600060015485610a3c91906116f2565b604051909150339082156108fc029083906000818181858888f19350505050158015610a6c573d6000803e3d6000fd5b50505b50505050565b3360009081526005602052604090205460ff16610aa45760405162461bcd60e51b81526004016101759061167e565b60008111610b025760405162461bcd60e51b815260206004820152602560248201527f4275792070726963652073686f756c64206265206120706f736974697665206e6044820152643ab6b132b960d91b6064820152608401610175565b600155565b3360009081526005602052604090205460ff16610b365760405162461bcd60e51b81526004016101759061167e565b6006546001600160a01b031615610b9a5760405162461bcd60e51b815260206004820152602260248201527f4661726d20436f6e7472616374204163636f756e74206973206e6f7420656d70604482015261747960f01b6064820152608401610175565b6001600160a01b038116610bfb5760405162461bcd60e51b815260206004820152602260248201527f4661726d20436f6e7472616374204163636f756e74207a65726f206164647265604482015261737360f01b6064820152608401610175565b600680546001600160a01b0319166001600160a01b0392909216919091179055565b3360009081526005602052604081205460ff16610c4c5760405162461bcd60e51b81526004016101759061167e565b6001600160a01b0382166000908152600560205260408120805460ff19166001179055600a8054916105e4836116d9565b3360009081526005602052604090205460ff16610cac5760405162461bcd60e51b81526004016101759061167e565b600b5415610d8b57600b548114610d205760405162461bcd60e51b815260206004820152603260248201527f43616e27742073746172742074776f207769746864726177616c206f7065726160448201527174696f6e732073696d756c74616e656f757360701b6064820152608401610175565b600d54336001600160a01b0390911603610d8b5760405162461bcd60e51b815260206004820152602660248201527f54686973207573657220616c726561647920726571756573746564206120776960448201526574686472617760d01b6064820152608401610175565b600047610d998360646116f2565b610da39190611509565b9050600454811115610e315760405162461bcd60e51b815260206004820152604b60248201527f5468652070657263656e7461676520746f2062652077697468647261776e206d60448201527f757374206e6f742062652067726561746572207468616e20746865206d61786960648201526a1b5d5b48185b1b1bddd95960aa1b608482015260a401610175565b600b829055600c8054906000610e46836116d9565b9091555050600d80546001600160a01b03191633179055600c54600203610ea95760078054906000610e77836116d9565b90915550506007546000908152600860205260408120839055600b819055600c55600d80546001600160a01b03191690555b5050565b3360009081526005602052604081205460ff16610edc5760405162461bcd60e51b81526004016101759061167e565b600082604051602401610ef191815260200190565b60408051601f198184030181529181526020820180516001600160e01b031663854303cf60e01b179052600654905191925060009182916001600160a01b031690610f3d90859061152b565b6000604051808303816000865af19150503d8060008114610f7a576040519150601f19603f3d011682016040523d82523d6000602084013e610f7f565b606091505b50909695505050505050565b3360009081526005602052604081205460ff16610fba5760405162461bcd60e51b81526004016101759061167e565b6000828152600e60205260408120549003611014576000828152600e60205260408120805491610fe9836116d9565b90915550506000828152600e6020526040902060010180546001600160a01b03191633179055611173565b6000828152600e6020526040902060010154336001600160a01b03909116036110905760405162461bcd60e51b815260206004820152602860248201527f54686973207573657220616c7265616479207369676e2074686973206d696e74604482015267081c995c5d595cdd60c21b6064820152608401610175565b6000826040516024016110a591815260200190565b60408051601f198184030181529181526020820180516001600160e01b031663140e25ad60e31b1790526000805491519293509182916001600160a01b0316906110f090859061152b565b6000604051808303816000865af19150503d806000811461112d576040519150601f19603f3d011682016040523d82523d6000602084013e611132565b606091505b50909250905060018215151461114757600080fd5b506000848152600e6020526040812090815560010180546001600160a01b031916905591506105ee9050565b506000919050565b6006546000906001600160a01b031633146111e95760405162461bcd60e51b815260206004820152602860248201527f4f6e6c79204661726d20436f6e74726163742063616e2063616c6c20746869736044820152671036b2ba3437b21760c11b6064820152608401610175565b6040516001600160a01b03841660248201526044810183905260009060640160408051601f198184030181529181526020820180516001600160e01b031663a9059cbb60e01b1790526000805491519293509182916001600160a01b03169061125390859061152b565b6000604051808303816000865af19150503d8060008114611290576040519150601f19603f3d011682016040523d82523d6000602084013e611295565b606091505b5090925090506001821515146112bd5760405162461bcd60e51b815260040161017590611566565b50949350505050565b3360009081526005602052604090205460ff166112f55760405162461bcd60e51b81526004016101759061167e565b60328160ff16116113085760ff81166004555b50565b3360009081526005602052604090205460ff1661133a5760405162461bcd60e51b81526004016101759061167e565b600081116113995760405162461bcd60e51b815260206004820152602660248201527f53656c6c2070726963652073686f756c64206265206120706f73697469766520604482015265373ab6b132b960d11b6064820152608401610175565b600255565b6000546001600160a01b031633146114095760405162461bcd60e51b815260206004820152602860248201527f4f6e6c7920546f6b656e20436f6e74726163742063616e2063616c6c207468696044820152671cc81b595d1a1bd960c21b6064820152608401610175565b60006064600154603261141c91906116f2565b6114269190611509565b6114309084611509565b9050804710156114bd5760405162461bcd60e51b815260206004820152604c60248201527f54686520616d6f756e7420746f206265207472616e736665727265642069732060448201527f67726561746572207468616e20776861742063616e2063757272656e746c792060648201526b1899481cdd5c1c1bdc9d195960a21b608482015260a401610175565b6040516001600160a01b0383169082156108fc029083906000818181858888f19350505050158015610a6f573d6000803e3d6000fd5b634e487b7160e01b600052601160045260246000fd5b60008261152657634e487b7160e01b600052601260045260246000fd5b500490565b6000825160005b8181101561154c5760208186018101518583015201611532565b8181111561155b576000828501525b509190910192915050565b60208082526027908201527f4d6574686f64207472616e7366657220696e20546f6b656e20436f6e747261636040820152663a103330b4b61760c91b606082015260800190565b6000602082840312156115bf57600080fd5b5035919050565b6001600160a01b038116811461130857600080fd5b6000602082840312156115ed57600080fd5b81356115f8816115c6565b9392505050565b6000806040838503121561161257600080fd5b823561161d816115c6565b946020939093013593505050565b60006020828403121561163d57600080fd5b813560ff811681146115f857600080fd5b6000806040838503121561166157600080fd5b823591506020830135611673816115c6565b809150509250929050565b60208082526024908201527f46756e6374696f6e2061636365737369626c65206f6e6c7920627920616e20616040820152633236b4b760e11b606082015260800190565b6000816116d1576116d16114f3565b506000190190565b6000600182016116eb576116eb6114f3565b5060010190565b600081600019048311821515161561170c5761170c6114f3565b50029056fea264697066735822122067fa0885e1d7781c503e49a237845a1516df0bb337501004b50ef4be2cece9b564736f6c634300080e0033",
    "sourcePath": "c:/Users/juanm/OneDrive/Documents/ORT/Blockchain/obligatorio-bayuk-colli-gallicchio-areco/contracts/Vault.sol",
    "compiler": {
        "name": "solc",
        "version": "0.8.14+commit.80d49f37"
    },
    "functionHashes": {
        "addAdmin(address)": "70480275",
        "burn(uint256,address)": "fcd3533c",
        "buyPrice()": "8620410b",
        "exchangeEther(uint256)": "5572f9c6",
        "isAdmin()": "b6db75a0",
        "maxAmountToTransfer()": "622cdcc7",
        "mint(uint256)": "a0712d68",
        "removeAdmin(address)": "1785f53c",
        "requestWithdraw(uint256)": "745400c9",
        "sellPrice()": "4b750334",
        "setAPR(uint256)": "854303cf",
        "setBuyPrice(uint256)": "63ae8d6c",
        "setFarmAccount(address)": "6efba73c",
        "setMaxAmountToTransfer(uint256)": "029482d7",
        "setMaxPercentage(uint8)": "cae44ebb",
        "setSellPrice(uint256)": "fc6634b9",
        "setTransferAccount(address)": "3deced1f",
        "transfer(address,uint256)": "a9059cbb",
        "withdraw()": "3ccfd60b"
    },
    "gasEstimates": {
        "creation": {
            "codeDepositCost": "1191800",
            "executionCost": "49810",
            "totalCost": "1241610"
        },
        "external": {
            "addAdmin(address)": "51173",
            "burn(uint256,address)": "infinite",
            "buyPrice()": "2384",
            "exchangeEther(uint256)": "infinite",
            "isAdmin()": "2405",
            "maxAmountToTransfer()": "2362",
            "mint(uint256)": "infinite",
            "removeAdmin(address)": "51187",
            "requestWithdraw(uint256)": "infinite",
            "sellPrice()": "2318",
            "setAPR(uint256)": "infinite",
            "setBuyPrice(uint256)": "24627",
            "setFarmAccount(address)": "29040",
            "setMaxAmountToTransfer(uint256)": "24562",
            "setMaxPercentage(uint8)": "24655",
            "setSellPrice(uint256)": "24626",
            "setTransferAccount(address)": "29019",
            "transfer(address,uint256)": "infinite",
            "withdraw()": "infinite"
        }
    }
}